{
  "contractName": "Shapes",
  "abi": [
    {
      "inputs": [],
      "stateMutability": "nonpayable",
      "type": "constructor"
    },
    {
      "anonymous": false,
      "inputs": [
        {
          "indexed": true,
          "internalType": "address",
          "name": "owner",
          "type": "address"
        },
        {
          "indexed": true,
          "internalType": "address",
          "name": "approved",
          "type": "address"
        },
        {
          "indexed": true,
          "internalType": "uint256",
          "name": "tokenId",
          "type": "uint256"
        }
      ],
      "name": "Approval",
      "type": "event"
    },
    {
      "anonymous": false,
      "inputs": [
        {
          "indexed": true,
          "internalType": "address",
          "name": "owner",
          "type": "address"
        },
        {
          "indexed": true,
          "internalType": "address",
          "name": "operator",
          "type": "address"
        },
        {
          "indexed": false,
          "internalType": "bool",
          "name": "approved",
          "type": "bool"
        }
      ],
      "name": "ApprovalForAll",
      "type": "event"
    },
    {
      "anonymous": false,
      "inputs": [
        {
          "indexed": true,
          "internalType": "address",
          "name": "previousOwner",
          "type": "address"
        },
        {
          "indexed": true,
          "internalType": "address",
          "name": "newOwner",
          "type": "address"
        }
      ],
      "name": "OwnershipTransferred",
      "type": "event"
    },
    {
      "anonymous": false,
      "inputs": [
        {
          "indexed": true,
          "internalType": "address",
          "name": "from",
          "type": "address"
        },
        {
          "indexed": true,
          "internalType": "address",
          "name": "to",
          "type": "address"
        },
        {
          "indexed": true,
          "internalType": "uint256",
          "name": "tokenId",
          "type": "uint256"
        }
      ],
      "name": "Transfer",
      "type": "event"
    },
    {
      "inputs": [
        {
          "internalType": "address",
          "name": "to",
          "type": "address"
        },
        {
          "internalType": "uint256",
          "name": "tokenId",
          "type": "uint256"
        }
      ],
      "name": "approve",
      "outputs": [],
      "stateMutability": "nonpayable",
      "type": "function"
    },
    {
      "inputs": [
        {
          "internalType": "address",
          "name": "owner",
          "type": "address"
        }
      ],
      "name": "balanceOf",
      "outputs": [
        {
          "internalType": "uint256",
          "name": "",
          "type": "uint256"
        }
      ],
      "stateMutability": "view",
      "type": "function",
      "constant": true
    },
    {
      "inputs": [
        {
          "internalType": "uint256",
          "name": "tokenId",
          "type": "uint256"
        }
      ],
      "name": "getApproved",
      "outputs": [
        {
          "internalType": "address",
          "name": "",
          "type": "address"
        }
      ],
      "stateMutability": "view",
      "type": "function",
      "constant": true
    },
    {
      "inputs": [
        {
          "internalType": "address",
          "name": "owner",
          "type": "address"
        },
        {
          "internalType": "address",
          "name": "operator",
          "type": "address"
        }
      ],
      "name": "isApprovedForAll",
      "outputs": [
        {
          "internalType": "bool",
          "name": "",
          "type": "bool"
        }
      ],
      "stateMutability": "view",
      "type": "function",
      "constant": true
    },
    {
      "inputs": [],
      "name": "name",
      "outputs": [
        {
          "internalType": "string",
          "name": "",
          "type": "string"
        }
      ],
      "stateMutability": "view",
      "type": "function",
      "constant": true
    },
    {
      "inputs": [],
      "name": "owner",
      "outputs": [
        {
          "internalType": "address",
          "name": "",
          "type": "address"
        }
      ],
      "stateMutability": "view",
      "type": "function",
      "constant": true
    },
    {
      "inputs": [
        {
          "internalType": "uint256",
          "name": "tokenId",
          "type": "uint256"
        }
      ],
      "name": "ownerOf",
      "outputs": [
        {
          "internalType": "address",
          "name": "",
          "type": "address"
        }
      ],
      "stateMutability": "view",
      "type": "function",
      "constant": true
    },
    {
      "inputs": [],
      "name": "renounceOwnership",
      "outputs": [],
      "stateMutability": "nonpayable",
      "type": "function"
    },
    {
      "inputs": [
        {
          "internalType": "address",
          "name": "from",
          "type": "address"
        },
        {
          "internalType": "address",
          "name": "to",
          "type": "address"
        },
        {
          "internalType": "uint256",
          "name": "tokenId",
          "type": "uint256"
        }
      ],
      "name": "safeTransferFrom",
      "outputs": [],
      "stateMutability": "nonpayable",
      "type": "function"
    },
    {
      "inputs": [
        {
          "internalType": "address",
          "name": "from",
          "type": "address"
        },
        {
          "internalType": "address",
          "name": "to",
          "type": "address"
        },
        {
          "internalType": "uint256",
          "name": "tokenId",
          "type": "uint256"
        },
        {
          "internalType": "bytes",
          "name": "_data",
          "type": "bytes"
        }
      ],
      "name": "safeTransferFrom",
      "outputs": [],
      "stateMutability": "nonpayable",
      "type": "function"
    },
    {
      "inputs": [
        {
          "internalType": "address",
          "name": "operator",
          "type": "address"
        },
        {
          "internalType": "bool",
          "name": "approved",
          "type": "bool"
        }
      ],
      "name": "setApprovalForAll",
      "outputs": [],
      "stateMutability": "nonpayable",
      "type": "function"
    },
    {
      "inputs": [
        {
          "internalType": "bytes4",
          "name": "interfaceId",
          "type": "bytes4"
        }
      ],
      "name": "supportsInterface",
      "outputs": [
        {
          "internalType": "bool",
          "name": "",
          "type": "bool"
        }
      ],
      "stateMutability": "view",
      "type": "function",
      "constant": true
    },
    {
      "inputs": [],
      "name": "symbol",
      "outputs": [
        {
          "internalType": "string",
          "name": "",
          "type": "string"
        }
      ],
      "stateMutability": "view",
      "type": "function",
      "constant": true
    },
    {
      "inputs": [
        {
          "internalType": "uint256",
          "name": "tokenId",
          "type": "uint256"
        }
      ],
      "name": "tokenURI",
      "outputs": [
        {
          "internalType": "string",
          "name": "",
          "type": "string"
        }
      ],
      "stateMutability": "view",
      "type": "function",
      "constant": true
    },
    {
      "inputs": [
        {
          "internalType": "address",
          "name": "from",
          "type": "address"
        },
        {
          "internalType": "address",
          "name": "to",
          "type": "address"
        },
        {
          "internalType": "uint256",
          "name": "tokenId",
          "type": "uint256"
        }
      ],
      "name": "transferFrom",
      "outputs": [],
      "stateMutability": "nonpayable",
      "type": "function"
    },
    {
      "inputs": [
        {
          "internalType": "address",
          "name": "newOwner",
          "type": "address"
        }
      ],
      "name": "transferOwnership",
      "outputs": [],
      "stateMutability": "nonpayable",
      "type": "function"
    },
    {
      "inputs": [],
      "name": "buy",
      "outputs": [],
      "stateMutability": "payable",
      "type": "function",
      "payable": true
    }
  ],
  "bytecode": "0x60806040523480156200001157600080fd5b506040518060400160405280600681526020017f53686170657300000000000000000000000000000000000000000000000000008152506040518060400160405280600381526020017f5348500000000000000000000000000000000000000000000000000000000000815250816000908051906020019062000096929190620001a6565b508060019080519060200190620000af929190620001a6565b505050620000d2620000c6620000d860201b60201c565b620000e060201b60201c565b620002bb565b600033905090565b6000600760009054906101000a900473ffffffffffffffffffffffffffffffffffffffff16905081600760006101000a81548173ffffffffffffffffffffffffffffffffffffffff021916908373ffffffffffffffffffffffffffffffffffffffff1602179055508173ffffffffffffffffffffffffffffffffffffffff168173ffffffffffffffffffffffffffffffffffffffff167f8be0079c531659141344cd1fd0a4f28419497f9722a3daafe3b4186f6b6457e060405160405180910390a35050565b828054620001b49062000256565b90600052602060002090601f016020900481019282620001d8576000855562000224565b82601f10620001f357805160ff191683800117855562000224565b8280016001018555821562000224579182015b828111156200022357825182559160200191906001019062000206565b5b50905062000233919062000237565b5090565b5b808211156200025257600081600090555060010162000238565b5090565b600060028204905060018216806200026f57607f821691505b602082108114156200028657620002856200028c565b5b50919050565b7f4e487b7100000000000000000000000000000000000000000000000000000000600052602260045260246000fd5b612d3f80620002cb6000396000f3fe6080604052600436106100fe5760003560e01c8063715018a611610095578063a6f2ae3a11610064578063a6f2ae3a14610333578063b88d4fde1461033d578063c87b56dd14610366578063e985e9c5146103a3578063f2fde38b146103e0576100fe565b8063715018a61461029d5780638da5cb5b146102b457806395d89b41146102df578063a22cb4651461030a576100fe565b806323b872dd116100d157806323b872dd146101d157806342842e0e146101fa5780636352211e1461022357806370a0823114610260576100fe565b806301ffc9a71461010357806306fdde0314610140578063081812fc1461016b578063095ea7b3146101a8575b600080fd5b34801561010f57600080fd5b5061012a60048036038101906101259190611e78565b610409565b604051610137919061267c565b60405180910390f35b34801561014c57600080fd5b506101556104eb565b6040516101629190612697565b60405180910390f35b34801561017757600080fd5b50610192600480360381019061018d9190611eca565b61057d565b60405161019f9190612615565b60405180910390f35b3480156101b457600080fd5b506101cf60048036038101906101ca9190611e3c565b610602565b005b3480156101dd57600080fd5b506101f860048036038101906101f39190611d36565b61071a565b005b34801561020657600080fd5b50610221600480360381019061021c9190611d36565b61077a565b005b34801561022f57600080fd5b5061024a60048036038101906102459190611eca565b61079a565b6040516102579190612615565b60405180910390f35b34801561026c57600080fd5b5061028760048036038101906102829190611cd1565b61084c565b60405161029491906128d9565b60405180910390f35b3480156102a957600080fd5b506102b2610904565b005b3480156102c057600080fd5b506102c961098c565b6040516102d69190612615565b60405180910390f35b3480156102eb57600080fd5b506102f46109b6565b6040516103019190612697565b60405180910390f35b34801561031657600080fd5b50610331600480360381019061032c9190611e00565b610a48565b005b61033b610a5e565b005b34801561034957600080fd5b50610364600480360381019061035f9190611d85565b610b03565b005b34801561037257600080fd5b5061038d60048036038101906103889190611eca565b610b65565b60405161039a9190612697565b60405180910390f35b3480156103af57600080fd5b506103ca60048036038101906103c59190611cfa565b610cb7565b6040516103d7919061267c565b60405180910390f35b3480156103ec57600080fd5b5061040760048036038101906104029190611cd1565b610d4b565b005b60007f80ac58cd000000000000000000000000000000000000000000000000000000007bffffffffffffffffffffffffffffffffffffffffffffffffffffffff1916827bffffffffffffffffffffffffffffffffffffffffffffffffffffffff191614806104d457507f5b5e139f000000000000000000000000000000000000000000000000000000007bffffffffffffffffffffffffffffffffffffffffffffffffffffffff1916827bffffffffffffffffffffffffffffffffffffffffffffffffffffffff1916145b806104e457506104e382610e43565b5b9050919050565b6060600080546104fa90612b09565b80601f016020809104026020016040519081016040528092919081815260200182805461052690612b09565b80156105735780601f1061054857610100808354040283529160200191610573565b820191906000526020600020905b81548152906001019060200180831161055657829003601f168201915b5050505050905090565b600061058882610ead565b6105c7576040517f08c379a00000000000000000000000000000000000000000000000000000000081526004016105be90612839565b60405180910390fd5b6004600083815260200190815260200160002060009054906101000a900473ffffffffffffffffffffffffffffffffffffffff169050919050565b600061060d8261079a565b90508073ffffffffffffffffffffffffffffffffffffffff168373ffffffffffffffffffffffffffffffffffffffff16141561067e576040517f08c379a000000000000000000000000000000000000000000000000000000000815260040161067590612899565b60405180910390fd5b8073ffffffffffffffffffffffffffffffffffffffff1661069d610f19565b73ffffffffffffffffffffffffffffffffffffffff1614806106cc57506106cb816106c6610f19565b610cb7565b5b61070b576040517f08c379a000000000000000000000000000000000000000000000000000000000815260040161070290612799565b60405180910390fd5b6107158383610f21565b505050565b61072b610725610f19565b82610fda565b61076a576040517f08c379a0000000000000000000000000000000000000000000000000000000008152600401610761906128b9565b60405180910390fd5b6107758383836110b8565b505050565b61079583838360405180602001604052806000815250610b03565b505050565b6000806002600084815260200190815260200160002060009054906101000a900473ffffffffffffffffffffffffffffffffffffffff169050600073ffffffffffffffffffffffffffffffffffffffff168173ffffffffffffffffffffffffffffffffffffffff161415610843576040517f08c379a000000000000000000000000000000000000000000000000000000000815260040161083a906127d9565b60405180910390fd5b80915050919050565b60008073ffffffffffffffffffffffffffffffffffffffff168273ffffffffffffffffffffffffffffffffffffffff1614156108bd576040517f08c379a00000000000000000000000000000000000000000000000000000000081526004016108b4906127b9565b60405180910390fd5b600360008373ffffffffffffffffffffffffffffffffffffffff1673ffffffffffffffffffffffffffffffffffffffff168152602001908152602001600020549050919050565b61090c610f19565b73ffffffffffffffffffffffffffffffffffffffff1661092a61098c565b73ffffffffffffffffffffffffffffffffffffffff1614610980576040517f08c379a000000000000000000000000000000000000000000000000000000000815260040161097790612859565b60405180910390fd5b61098a600061131f565b565b6000600760009054906101000a900473ffffffffffffffffffffffffffffffffffffffff16905090565b6060600180546109c590612b09565b80601f01602080910402602001604051908101604052809291908181526020018280546109f190612b09565b8015610a3e5780601f10610a1357610100808354040283529160200191610a3e565b820191906000526020600020905b815481529060010190602001808311610a2157829003601f168201915b5050505050905090565b610a5a610a53610f19565b83836113e5565b5050565b600067016345785d8a0000905080341015610a7857600080fd5b610a826008611552565b6003610a8e6008611568565b1115610a9957600080fd5b6000610aa56008611568565b9050610aaf61098c565b73ffffffffffffffffffffffffffffffffffffffff166108fc349081150290604051600060405180830381858888f19350505050158015610af4573d6000803e3d6000fd5b50610aff3382611576565b5050565b610b14610b0e610f19565b83610fda565b610b53576040517f08c379a0000000000000000000000000000000000000000000000000000000008152600401610b4a906128b9565b60405180910390fd5b610b5f84848484611750565b50505050565b6060610b7082610ead565b610baf576040517f08c379a0000000000000000000000000000000000000000000000000000000008152600401610ba690612819565b60405180910390fd5b6000600660008481526020019081526020016000208054610bcf90612b09565b80601f0160208091040260200160405190810160405280929190818152602001828054610bfb90612b09565b8015610c485780601f10610c1d57610100808354040283529160200191610c48565b820191906000526020600020905b815481529060010190602001808311610c2b57829003601f168201915b505050505090506000610c596117ac565b9050600081511415610c6f578192505050610cb2565b600082511115610ca4578082604051602001610c8c9291906125f1565b60405160208183030381529060405292505050610cb2565b610cad846117cc565b925050505b919050565b6000600560008473ffffffffffffffffffffffffffffffffffffffff1673ffffffffffffffffffffffffffffffffffffffff16815260200190815260200160002060008373ffffffffffffffffffffffffffffffffffffffff1673ffffffffffffffffffffffffffffffffffffffff16815260200190815260200160002060009054906101000a900460ff16905092915050565b610d53610f19565b73ffffffffffffffffffffffffffffffffffffffff16610d7161098c565b73ffffffffffffffffffffffffffffffffffffffff1614610dc7576040517f08c379a0000000000000000000000000000000000000000000000000000000008152600401610dbe90612859565b60405180910390fd5b600073ffffffffffffffffffffffffffffffffffffffff168173ffffffffffffffffffffffffffffffffffffffff161415610e37576040517f08c379a0000000000000000000000000000000000000000000000000000000008152600401610e2e906126d9565b60405180910390fd5b610e408161131f565b50565b60007f01ffc9a7000000000000000000000000000000000000000000000000000000007bffffffffffffffffffffffffffffffffffffffffffffffffffffffff1916827bffffffffffffffffffffffffffffffffffffffffffffffffffffffff1916149050919050565b60008073ffffffffffffffffffffffffffffffffffffffff166002600084815260200190815260200160002060009054906101000a900473ffffffffffffffffffffffffffffffffffffffff1673ffffffffffffffffffffffffffffffffffffffff1614159050919050565b600033905090565b816004600083815260200190815260200160002060006101000a81548173ffffffffffffffffffffffffffffffffffffffff021916908373ffffffffffffffffffffffffffffffffffffffff160217905550808273ffffffffffffffffffffffffffffffffffffffff16610f948361079a565b73ffffffffffffffffffffffffffffffffffffffff167f8c5be1e5ebec7d5bd14f71427d1e84f3dd0314c0f7b2291e5b200ac8c7c3b92560405160405180910390a45050565b6000610fe582610ead565b611024576040517f08c379a000000000000000000000000000000000000000000000000000000000815260040161101b90612779565b60405180910390fd5b600061102f8361079a565b90508073ffffffffffffffffffffffffffffffffffffffff168473ffffffffffffffffffffffffffffffffffffffff16148061109e57508373ffffffffffffffffffffffffffffffffffffffff166110868461057d565b73ffffffffffffffffffffffffffffffffffffffff16145b806110af57506110ae8185610cb7565b5b91505092915050565b8273ffffffffffffffffffffffffffffffffffffffff166110d88261079a565b73ffffffffffffffffffffffffffffffffffffffff161461112e576040517f08c379a0000000000000000000000000000000000000000000000000000000008152600401611125906126f9565b60405180910390fd5b600073ffffffffffffffffffffffffffffffffffffffff168273ffffffffffffffffffffffffffffffffffffffff16141561119e576040517f08c379a000000000000000000000000000000000000000000000000000000000815260040161119590612739565b60405180910390fd5b6111a9838383611873565b6111b4600082610f21565b6001600360008573ffffffffffffffffffffffffffffffffffffffff1673ffffffffffffffffffffffffffffffffffffffff16815260200190815260200160002060008282546112049190612a1f565b925050819055506001600360008473ffffffffffffffffffffffffffffffffffffffff1673ffffffffffffffffffffffffffffffffffffffff168152602001908152602001600020600082825461125b9190612998565b92505081905550816002600083815260200190815260200160002060006101000a81548173ffffffffffffffffffffffffffffffffffffffff021916908373ffffffffffffffffffffffffffffffffffffffff160217905550808273ffffffffffffffffffffffffffffffffffffffff168473ffffffffffffffffffffffffffffffffffffffff167fddf252ad1be2c89b69c2b068fc378daa952ba7f163c4a11628f55a4df523b3ef60405160405180910390a461131a838383611878565b505050565b6000600760009054906101000a900473ffffffffffffffffffffffffffffffffffffffff16905081600760006101000a81548173ffffffffffffffffffffffffffffffffffffffff021916908373ffffffffffffffffffffffffffffffffffffffff1602179055508173ffffffffffffffffffffffffffffffffffffffff168173ffffffffffffffffffffffffffffffffffffffff167f8be0079c531659141344cd1fd0a4f28419497f9722a3daafe3b4186f6b6457e060405160405180910390a35050565b8173ffffffffffffffffffffffffffffffffffffffff168373ffffffffffffffffffffffffffffffffffffffff161415611454576040517f08c379a000000000000000000000000000000000000000000000000000000000815260040161144b90612759565b60405180910390fd5b80600560008573ffffffffffffffffffffffffffffffffffffffff1673ffffffffffffffffffffffffffffffffffffffff16815260200190815260200160002060008473ffffffffffffffffffffffffffffffffffffffff1673ffffffffffffffffffffffffffffffffffffffff16815260200190815260200160002060006101000a81548160ff0219169083151502179055508173ffffffffffffffffffffffffffffffffffffffff168373ffffffffffffffffffffffffffffffffffffffff167f17307eab39ab6107e8899845ad3d59bd9653f200f220920489ca2b5937696c3183604051611545919061267c565b60405180910390a3505050565b6001816000016000828254019250508190555050565b600081600001549050919050565b600073ffffffffffffffffffffffffffffffffffffffff168273ffffffffffffffffffffffffffffffffffffffff1614156115e6576040517f08c379a00000000000000000000000000000000000000000000000000000000081526004016115dd906127f9565b60405180910390fd5b6115ef81610ead565b1561162f576040517f08c379a000000000000000000000000000000000000000000000000000000000815260040161162690612719565b60405180910390fd5b61163b60008383611873565b6001600360008473ffffffffffffffffffffffffffffffffffffffff1673ffffffffffffffffffffffffffffffffffffffff168152602001908152602001600020600082825461168b9190612998565b92505081905550816002600083815260200190815260200160002060006101000a81548173ffffffffffffffffffffffffffffffffffffffff021916908373ffffffffffffffffffffffffffffffffffffffff160217905550808273ffffffffffffffffffffffffffffffffffffffff16600073ffffffffffffffffffffffffffffffffffffffff167fddf252ad1be2c89b69c2b068fc378daa952ba7f163c4a11628f55a4df523b3ef60405160405180910390a461174c60008383611878565b5050565b61175b8484846110b8565b6117678484848461187d565b6117a6576040517f08c379a000000000000000000000000000000000000000000000000000000000815260040161179d906126b9565b60405180910390fd5b50505050565b60606040518060600160405280602b8152602001612cdf602b9139905090565b60606117d782610ead565b611816576040517f08c379a000000000000000000000000000000000000000000000000000000000815260040161180d90612879565b60405180910390fd5b60006118206117ac565b90506000815111611840576040518060200160405280600081525061186b565b8061184a84611a14565b60405160200161185b9291906125f1565b6040516020818303038152906040525b915050919050565b505050565b505050565b600061189e8473ffffffffffffffffffffffffffffffffffffffff16611bc1565b15611a07578373ffffffffffffffffffffffffffffffffffffffff1663150b7a026118c7610f19565b8786866040518563ffffffff1660e01b81526004016118e99493929190612630565b602060405180830381600087803b15801561190357600080fd5b505af192505050801561193457506040513d601f19601f820116820180604052508101906119319190611ea1565b60015b6119b7573d8060008114611964576040519150601f19603f3d011682016040523d82523d6000602084013e611969565b606091505b506000815114156119af576040517f08c379a00000000000000000000000000000000000000000000000000000000081526004016119a6906126b9565b60405180910390fd5b805181602001fd5b63150b7a0260e01b7bffffffffffffffffffffffffffffffffffffffffffffffffffffffff1916817bffffffffffffffffffffffffffffffffffffffffffffffffffffffff191614915050611a0c565b600190505b949350505050565b60606000821415611a5c576040518060400160405280600181526020017f30000000000000000000000000000000000000000000000000000000000000008152509050611bbc565b600082905060005b60008214611a8e578080611a7790612b3b565b915050600a82611a8791906129ee565b9150611a64565b60008167ffffffffffffffff811115611ad0577f4e487b7100000000000000000000000000000000000000000000000000000000600052604160045260246000fd5b6040519080825280601f01601f191660200182016040528015611b025781602001600182028036833780820191505090505b5090505b60008514611bb557600182611b1b9190612a1f565b9150600a85611b2a9190612b84565b6030611b369190612998565b60f81b818381518110611b72577f4e487b7100000000000000000000000000000000000000000000000000000000600052603260045260246000fd5b60200101907effffffffffffffffffffffffffffffffffffffffffffffffffffffffffffff1916908160001a905350600a85611bae91906129ee565b9450611b06565b8093505050505b919050565b6000808273ffffffffffffffffffffffffffffffffffffffff16803b806020016040519081016040528181526000908060200190933c51119050919050565b6000611c13611c0e84612925565b6128f4565b905082815260208101848484011115611c2b57600080fd5b611c36848285612ac7565b509392505050565b600081359050611c4d81612c82565b92915050565b600081359050611c6281612c99565b92915050565b600081359050611c7781612cb0565b92915050565b600081519050611c8c81612cb0565b92915050565b600082601f830112611ca357600080fd5b8135611cb3848260208601611c00565b91505092915050565b600081359050611ccb81612cc7565b92915050565b600060208284031215611ce357600080fd5b6000611cf184828501611c3e565b91505092915050565b60008060408385031215611d0d57600080fd5b6000611d1b85828601611c3e565b9250506020611d2c85828601611c3e565b9150509250929050565b600080600060608486031215611d4b57600080fd5b6000611d5986828701611c3e565b9350506020611d6a86828701611c3e565b9250506040611d7b86828701611cbc565b9150509250925092565b60008060008060808587031215611d9b57600080fd5b6000611da987828801611c3e565b9450506020611dba87828801611c3e565b9350506040611dcb87828801611cbc565b925050606085013567ffffffffffffffff811115611de857600080fd5b611df487828801611c92565b91505092959194509250565b60008060408385031215611e1357600080fd5b6000611e2185828601611c3e565b9250506020611e3285828601611c53565b9150509250929050565b60008060408385031215611e4f57600080fd5b6000611e5d85828601611c3e565b9250506020611e6e85828601611cbc565b9150509250929050565b600060208284031215611e8a57600080fd5b6000611e9884828501611c68565b91505092915050565b600060208284031215611eb357600080fd5b6000611ec184828501611c7d565b91505092915050565b600060208284031215611edc57600080fd5b6000611eea84828501611cbc565b91505092915050565b611efc81612a53565b82525050565b611f0b81612a65565b82525050565b6000611f1c82612955565b611f26818561296b565b9350611f36818560208601612ad6565b611f3f81612c71565b840191505092915050565b6000611f5582612960565b611f5f818561297c565b9350611f6f818560208601612ad6565b611f7881612c71565b840191505092915050565b6000611f8e82612960565b611f98818561298d565b9350611fa8818560208601612ad6565b80840191505092915050565b6000611fc160328361297c565b91507f4552433732313a207472616e7366657220746f206e6f6e20455243373231526560008301527f63656976657220696d706c656d656e74657200000000000000000000000000006020830152604082019050919050565b600061202760268361297c565b91507f4f776e61626c653a206e6577206f776e657220697320746865207a65726f206160008301527f64647265737300000000000000000000000000000000000000000000000000006020830152604082019050919050565b600061208d60258361297c565b91507f4552433732313a207472616e736665722066726f6d20696e636f72726563742060008301527f6f776e65720000000000000000000000000000000000000000000000000000006020830152604082019050919050565b60006120f3601c8361297c565b91507f4552433732313a20746f6b656e20616c7265616479206d696e746564000000006000830152602082019050919050565b600061213360248361297c565b91507f4552433732313a207472616e7366657220746f20746865207a65726f2061646460008301527f72657373000000000000000000000000000000000000000000000000000000006020830152604082019050919050565b600061219960198361297c565b91507f4552433732313a20617070726f766520746f2063616c6c6572000000000000006000830152602082019050919050565b60006121d9602c8361297c565b91507f4552433732313a206f70657261746f7220717565727920666f72206e6f6e657860008301527f697374656e7420746f6b656e00000000000000000000000000000000000000006020830152604082019050919050565b600061223f60388361297c565b91507f4552433732313a20617070726f76652063616c6c6572206973206e6f74206f7760008301527f6e6572206e6f7220617070726f76656420666f7220616c6c00000000000000006020830152604082019050919050565b60006122a5602a8361297c565b91507f4552433732313a2062616c616e636520717565727920666f7220746865207a6560008301527f726f2061646472657373000000000000000000000000000000000000000000006020830152604082019050919050565b600061230b60298361297c565b91507f4552433732313a206f776e657220717565727920666f72206e6f6e657869737460008301527f656e7420746f6b656e00000000000000000000000000000000000000000000006020830152604082019050919050565b600061237160208361297c565b91507f4552433732313a206d696e7420746f20746865207a65726f20616464726573736000830152602082019050919050565b60006123b160318361297c565b91507f45524337323155524953746f726167653a2055524920717565727920666f722060008301527f6e6f6e6578697374656e7420746f6b656e0000000000000000000000000000006020830152604082019050919050565b6000612417602c8361297c565b91507f4552433732313a20617070726f76656420717565727920666f72206e6f6e657860008301527f697374656e7420746f6b656e00000000000000000000000000000000000000006020830152604082019050919050565b600061247d60208361297c565b91507f4f776e61626c653a2063616c6c6572206973206e6f7420746865206f776e65726000830152602082019050919050565b60006124bd602f8361297c565b91507f4552433732314d657461646174613a2055524920717565727920666f72206e6f60008301527f6e6578697374656e7420746f6b656e00000000000000000000000000000000006020830152604082019050919050565b600061252360218361297c565b91507f4552433732313a20617070726f76616c20746f2063757272656e74206f776e6560008301527f72000000000000000000000000000000000000000000000000000000000000006020830152604082019050919050565b600061258960318361297c565b91507f4552433732313a207472616e736665722063616c6c6572206973206e6f74206f60008301527f776e6572206e6f7220617070726f7665640000000000000000000000000000006020830152604082019050919050565b6125eb81612abd565b82525050565b60006125fd8285611f83565b91506126098284611f83565b91508190509392505050565b600060208201905061262a6000830184611ef3565b92915050565b60006080820190506126456000830187611ef3565b6126526020830186611ef3565b61265f60408301856125e2565b81810360608301526126718184611f11565b905095945050505050565b60006020820190506126916000830184611f02565b92915050565b600060208201905081810360008301526126b18184611f4a565b905092915050565b600060208201905081810360008301526126d281611fb4565b9050919050565b600060208201905081810360008301526126f28161201a565b9050919050565b6000602082019050818103600083015261271281612080565b9050919050565b60006020820190508181036000830152612732816120e6565b9050919050565b6000602082019050818103600083015261275281612126565b9050919050565b600060208201905081810360008301526127728161218c565b9050919050565b60006020820190508181036000830152612792816121cc565b9050919050565b600060208201905081810360008301526127b281612232565b9050919050565b600060208201905081810360008301526127d281612298565b9050919050565b600060208201905081810360008301526127f2816122fe565b9050919050565b6000602082019050818103600083015261281281612364565b9050919050565b60006020820190508181036000830152612832816123a4565b9050919050565b600060208201905081810360008301526128528161240a565b9050919050565b6000602082019050818103600083015261287281612470565b9050919050565b60006020820190508181036000830152612892816124b0565b9050919050565b600060208201905081810360008301526128b281612516565b9050919050565b600060208201905081810360008301526128d28161257c565b9050919050565b60006020820190506128ee60008301846125e2565b92915050565b6000604051905081810181811067ffffffffffffffff8211171561291b5761291a612c42565b5b8060405250919050565b600067ffffffffffffffff8211156129405761293f612c42565b5b601f19601f8301169050602081019050919050565b600081519050919050565b600081519050919050565b600082825260208201905092915050565b600082825260208201905092915050565b600081905092915050565b60006129a382612abd565b91506129ae83612abd565b9250827fffffffffffffffffffffffffffffffffffffffffffffffffffffffffffffffff038211156129e3576129e2612bb5565b5b828201905092915050565b60006129f982612abd565b9150612a0483612abd565b925082612a1457612a13612be4565b5b828204905092915050565b6000612a2a82612abd565b9150612a3583612abd565b925082821015612a4857612a47612bb5565b5b828203905092915050565b6000612a5e82612a9d565b9050919050565b60008115159050919050565b60007fffffffff0000000000000000000000000000000000000000000000000000000082169050919050565b600073ffffffffffffffffffffffffffffffffffffffff82169050919050565b6000819050919050565b82818337600083830152505050565b60005b83811015612af4578082015181840152602081019050612ad9565b83811115612b03576000848401525b50505050565b60006002820490506001821680612b2157607f821691505b60208210811415612b3557612b34612c13565b5b50919050565b6000612b4682612abd565b91507fffffffffffffffffffffffffffffffffffffffffffffffffffffffffffffffff821415612b7957612b78612bb5565b5b600182019050919050565b6000612b8f82612abd565b9150612b9a83612abd565b925082612baa57612ba9612be4565b5b828206905092915050565b7f4e487b7100000000000000000000000000000000000000000000000000000000600052601160045260246000fd5b7f4e487b7100000000000000000000000000000000000000000000000000000000600052601260045260246000fd5b7f4e487b7100000000000000000000000000000000000000000000000000000000600052602260045260246000fd5b7f4e487b7100000000000000000000000000000000000000000000000000000000600052604160045260246000fd5b6000601f19601f8301169050919050565b612c8b81612a53565b8114612c9657600080fd5b50565b612ca281612a65565b8114612cad57600080fd5b50565b612cb981612a71565b8114612cc457600080fd5b50565b612cd081612abd565b8114612cdb57600080fd5b5056fe68747470733a2f2f6c69742d73616e64732d37333038342e6865726f6b756170702e636f6d2f6e6674732fa26469706673582212200e987a9b031673ca88966f985577ef8e54456b898efa0e671b39658af735aa5a64736f6c63430008000033",
  "immutableReferences": {},
  "source": "// SPDX-License-Identifier: MIT\r\npragma solidity ^0.8.0;\r\nimport \"@openzeppelin/contracts/token/ERC721/extensions/ERC721URIStorage.sol\";\r\nimport \"@openzeppelin/contracts/utils/Counters.sol\";\r\nimport \"@openzeppelin/contracts/access/Ownable.sol\";\r\n\r\ncontract Shapes is ERC721URIStorage,Ownable {\r\n    using Counters for Counters.Counter;\r\n    Counters.Counter private _tokenIds;\r\n    \r\n    constructor() ERC721(\"Shapes\", \"SHP\")  {\r\n    }\r\n    function buy() payable public {\r\n        uint256 price=0.1 ether;\r\n        require(msg.value>=price);\r\n        _tokenIds.increment();\r\n        require(_tokenIds.current()<=3);\r\n        uint256 newItemId = _tokenIds.current();\r\n        payable(owner()).transfer(msg.value);\r\n        _mint(msg.sender, newItemId);       \r\n    }    \r\n    function _baseURI() internal pure override returns (string memory)  {\r\n        return 'https://lit-sands-73084.herokuapp.com/nfts/';\r\n    }    \r\n}",
  "sourcePath": "C:\\blockchain\\nft\\contracts\\Shapes.sol",
  "compiler": {
    "name": "solc",
    "version": "0.8.0+commit.c7dfd78e.Emscripten.clang"
  },
  "schemaVersion": "3.4.5",
  "updatedAt": "2022-04-25T08:26:25.215Z",
  "networkType": "ethereum",
  "devdoc": {
    "kind": "dev",
    "methods": {
      "approve(address,uint256)": {
        "details": "See {IERC721-approve}."
      },
      "balanceOf(address)": {
        "details": "See {IERC721-balanceOf}."
      },
      "getApproved(uint256)": {
        "details": "See {IERC721-getApproved}."
      },
      "isApprovedForAll(address,address)": {
        "details": "See {IERC721-isApprovedForAll}."
      },
      "name()": {
        "details": "See {IERC721Metadata-name}."
      },
      "owner()": {
        "details": "Returns the address of the current owner."
      },
      "ownerOf(uint256)": {
        "details": "See {IERC721-ownerOf}."
      },
      "renounceOwnership()": {
        "details": "Leaves the contract without owner. It will not be possible to call `onlyOwner` functions anymore. Can only be called by the current owner. NOTE: Renouncing ownership will leave the contract without an owner, thereby removing any functionality that is only available to the owner."
      },
      "safeTransferFrom(address,address,uint256)": {
        "details": "See {IERC721-safeTransferFrom}."
      },
      "safeTransferFrom(address,address,uint256,bytes)": {
        "details": "See {IERC721-safeTransferFrom}."
      },
      "setApprovalForAll(address,bool)": {
        "details": "See {IERC721-setApprovalForAll}."
      },
      "supportsInterface(bytes4)": {
        "details": "See {IERC165-supportsInterface}."
      },
      "symbol()": {
        "details": "See {IERC721Metadata-symbol}."
      },
      "tokenURI(uint256)": {
        "details": "See {IERC721Metadata-tokenURI}."
      },
      "transferFrom(address,address,uint256)": {
        "details": "See {IERC721-transferFrom}."
      },
      "transferOwnership(address)": {
        "details": "Transfers ownership of the contract to a new account (`newOwner`). Can only be called by the current owner."
      }
    },
    "version": 1
  },
  "userdoc": {
    "kind": "user",
    "methods": {},
    "version": 1
  }
}